:020000040000FA
:10000000180E0010B9020000BD020000BF0200007F
:10001000C1020000C3020000C50200000000000091
:10002000000000000000000000000000C702000007
:10003000C902000000000000CB020000CD02000059
:10004000CF020000CF020000CF020000CF0200006C
:10005000CF020000CF020000CF020000CF0200005C
:10006000CF020000CF020000CF020000CF0200004C
:10007000CF020000CF0200005B410000B546000047
:10008000FB4B0000374C00005F3D0000973D000037
:1000900019410000753A0000CF020000CF020000B5
:1000A000CF020000CF020000CF020000CF0200000C
:1000B000F5160000D31600007F1600005116000050
:1000C0000348854605F074FB004800471D05000005
:1000D000180E00100FB470B56946498A481E0621F3
:1000E00000F0F8F885B2681C0621484384B26946DE
:1000F000088AA04201DD052606E06946098A481EF5
:10010000062100F0E7F88EB200210846059A01F0BA
:10011000FDFF502300226621104601F0BBFF67233C
:1001200000226C21104601F0B5FF2023002272212D
:10013000104601F0AFFF28463130C3B200227821CB
:10014000104601F0A7FF00210120069A01F0DEFF12
:10015000002420E06846418A062068430019401CBC
:1001600081420BD10621694309198B0007A9CA589E
:10017000A11CC8B2012101F0C9FF0AE006216943B0
:1001800009198B0007A9CA58A11CC8B2002101F0A7
:10019000BDFF601C84B2B442DCDD70BC08BC04B09E
:1001A0001847000010B503F0E4F901F0F5FB02F088
:1001B0005BFC02F023FF02F0CEFA03F022F81821D4
:1001C000314804F030FF10BD10B530480078FF28EA
:1001D0000BD101F004FC03F097F902F030FC02F0BF
:1001E0009BFE02F0E8FF00F07EFA10BD7321264A64
:1001F0001170742151703A2191706521D1701146AE
:10020000087123490978FF2912D10021204A117071
:10021000204909781C4A51711E494A781A498A7145
:100220001D490978184AD1711B494A7816490A7242
:100230001A490978FF2906D10021184A1170184976
:100240000968114AD16017490978FF290CD10021AA
:10025000144A1170144909780B4A51721249097BEA
:1002600091721149097ED17210490978FF2909D18B
:1002700000210E4A11700E490968034A11610D49A7
:100280000968516170470000600900107207001092
:10029000B8070010B4070010B6070010CC07001014
:1002A000C8070010D6070010900A0010F8070010C9
:1002B000F4070010F007001005480047FEE7FEE7CE
:1002C000FEE7FEE7FEE7FEE7FEE7FEE7FEE7FEE706
:1002D000C100000070B500242546002801DA012481
:1002E0004042002901DA0125494204F05BFEAC429C
:1002F00000D04042002C00D0494270BDFFFFFFFFFC
:1003000010B5002819DA934A03071B0F083B9B0816
:100310009B00D2588307DC0EFF23A3409A434B0770
:100320001B0E8407E40EA3401A438A4B0407240FD4
:10033000083CA408A4001A5118E0874A03231B02B2
:10034000D21883089B00D2588307DC0EFF23A340FA
:100350009A434B071B0E8407E40EA3401A437E4BBF
:10036000032424021B198408A4001A5110BD02465C
:10037000002107E07948405C904201D1012070479C
:10038000481CC1B26429F5DB0020F8E7F0B585B060
:1003900073480190062004F024FE019801F07AFDD4
:1003A000002404E0FF202D3001F0C7F8641C0A2C63
:1003B000F8DB00273C46002404E06A48015D019810
:1003C0000155641C032000028442F6DB654801F0FD
:1003D00061FD002404E0FF202D3001F0AEF8641C24
:1003E0000A2CF8DB022004F0FCFD002734E004F0C6
:1003F000EFFD30210090FFF76DFFCEB2322E01DC11
:10040000012E00DA28E03046FFF7B1FF002800D0C7
:1004100022E07007400F0390F010029000240EE0DD
:100420000298C0014F494018005D012203998A409B
:1004300090430299C9014B4A89180855641C802CC5
:10044000EEDB38467F1C45490E54464801F022FD3C
:10045000142001F072F800BF2F2FC8D1FF205530B3
:1004600001F06BF8052004F0BCFD00272BE004F040
:10047000AFFD0090C017410E00980818C011C101CF
:100480000098401AC5B2802D01DC002D00DA1AE078
:100490002846FFF76CFF002800D014E0002408E095
:1004A000E0012F494018405DE1012E4A8918485566
:1004B000641C062CF4DB38467F1C28490D5429485F
:1004C00001F0E8FC00BFC72FD1DB002404E0FF20CF
:1004D0002D3001F032F8641C0A2CF8DB01F0F4FC3A
:1004E00005B0F0BD10B503F0A5F803F0CDF830204D
:1004F00000F0F0FF1C49002003F072FC00211220E4
:10050000FFF7FEFE002003F016FCE120400203F09E
:100510000BFB02211520FFF7F3FE10BDFFF7E2FFF2
:1005200001F034F8FFF73EFE00F022F80F4800F02B
:100530009CFFFFF72BFF0CE001F057F8FFF744FE9C
:10054000012000F07BF9012000F087F9012000F084
:1005500008FEF1E71CED00E000E100E09808001063
:1005600000030010000000100053070000060010F8
:1005700010B501F030F901F094F901F016F901F02D
:1005800009FB00F03CF901F0F1FF002001F05BF9FC
:10059000002001F0CAF9002001F0DFF9202001F06D
:1005A00014FB0020644908706449087010BD10B540
:1005B0000446002C06D0012C0ED0022C16D0032CA1
:1005C00028D11DE05D480078400840005B49087074
:1005D000002001F038F91EE0584800780121084356
:1005E00056490870012001F02EF914E053480078B4
:1005F0000121084351490870022001F024F90AE062
:100600004E480078012108434C490870032001F04E
:100610001AF900E000BF00BF10BD10B50446002C61
:1006200006D0012C0ED0022C16D0032C16D114E0CB
:10063000424800780221884340490870002001F0B8
:1006400074F90CE03D480078022108433B490870EA
:10065000012001F06AF902E001E000E000BF00BF04
:1006600010BD10B50446002C02D0012C14D109E0B5
:10067000324800780421884330490870002001F096
:100680006CF90AE02D480078042108432B490870D2
:10069000012001F062F900E000BF00BF10BD10B5FD
:1006A0000446092C09DC2548007808210843234921
:1006B0000870204601F089FA14E00F2C09D11F4878
:1006C0000078082188431D490870202001F07DFA38
:1006D00008E01A480078082188431849087020204B
:1006E00001F073FA10BD10B513480078002804DD3E
:1006F00011480078401E1049087010480078022107
:10070000084203D0012001F010F913E00A480078F4
:10071000002808D1094800780221084203D10020AE
:1007200001F003F906E004480078002802DD01200A
:1007300001F0FBF810BD00001506001014060010B3
:1007400038B504460020009037480078FF283FD194
:10075000002035490870684602F0C2FE002837D0F4
:10076000684600783149087068460078C021084022
:10077000A101884229D1684600783021084006D07E
:1007800010280BD0202810D030281CD114E0694646
:1007900009780807000FFFF70AFF15E06946097896
:1007A0000807000FFFF739FF0EE0694609780807D0
:1007B000000FFFF756FF07E0694609780807000FAA
:1007C000FFF76DFF00E000BF00BF6846007838BD4E
:1007D0000120FCE770B505460E46002400BF08E086
:1007E000295D13A005F094F8285D02F02CFE601C32
:1007F000C4B2B442F4DB0FA005F08AF870BD10B5A6
:10080000012003F06DFD02220821012003F05FFEAC
:10081000E1214902012002F086FD00200249087012
:100820000549087010BD00001806001016060010DB
:10083000256300000A0000001706001038B50446C2
:10084000002000902046FFF77BFF0090012803D096
:1008500068460078FF49087038BD10B586B0044678
:100860001821684604F0DFFB2046FFF7BFFCFA487A
:100870000078FF280BD1F9A005F04AF81822F949B1
:10088000684604F0B7FB18216846FFF7A3FF06B0DF
:1008900010BD7CB504460D46164600200090019020
:1008A0007320F1490870742048703A2088707220D3
:1008B000C87008460471ED480078002802D149202C
:1008C000487106E0E9480078012802D14F20E64946
:1008D0004871E5488571C67108220146684604F0F2
:1008E00089FB08216846FFF775FF7CBD70B5A4B091
:1008F00014211FA804F097FB0024DD48007801288C
:1009000004D10020DA49087001F0DEFAD9480078F5
:10091000FF287ED1D84800780A2803DA2020D7495A
:10092000C87207E0D44908780A21FFF7D3FC3030B9
:10093000D249C872D04908780A21FFF7CBFC303180
:10094000C8B2CE490873CC4948780A21FFF7C2FCE7
:100950003031C8B2C9498873C94800780A2803DA17
:100960002021C648C17708E0C54908780A21FFF769
:10097000B1FC3030C1B2C148C177C14908780A2101
:10098000FFF7A8FC3031BD4814300173BC494878EA
:100990000A21FFF79FFC3031B848143081732021C1
:1009A0001430C172017341738173B64800687D21B0
:1009B000C900884208D3B348006804F0F3FA303025
:1009C000C1B2AE482830C172AE48006864280CD36A
:1009D0006421AC48006804F0E5FA05460A2104F0F9
:1009E000E1FA3031A54828300173A64800680A288A
:1009F0000CD30A21A348006804F0D4FA05460A2162
:100A000004F0D0FA30319D48283041730A219D48C6
:100A100000E0CDE2006804F0C5FA30319748283094
:100A200081739948006804F079FC984A984B1B91AF
:100A30001A9004F089FB05460022964B04F0EAFB6D
:100A40001D911C9004F078FC3030C1B28B483C30D2
:100A5000C1728D4909684A0188188F4904F0A2FAC9
:100A6000C5B20A212846FFF735FC303183483C30B7
:100A7000417385490968FF224B3251430846864934
:100A800004F090FAC5B20A212846FFF723FC303162
:100A90007A483C3081738148006804F03FFC7B4A0F
:100AA0007B4B1B911A9004F04FFB05460022794BBB
:100AB00004F0B0FB1D911C9004F03EFC3030C1B23C
:100AC0006E485030C172754909684A0188187249E8
:100AD00004F068FAC5B20A212846FFF7FBFB303163
:100AE0006648503041736D490968FF224B325143CB
:100AF0000846694904F056FAC5B20A212846FFF7AC
:100B0000E9FB30315D4850308173654988680021C8
:100B100004F062FC40D86249886804F029FC61A2B4
:100B20000191009014211FA804F002FF1FA804F0F7
:100B300086FAC4B2032C14D120215048643081724B
:100B4000C17218A8017F4D486430017318A8417F15
:100B50004A486430417318A8817F484864308173E3
:100B600064E0042C62D1202144486430817218A8CA
:100B7000017F42486430C17218A8417F3F48643009
:100B8000017318A8817F3D486430417318A8C17F64
:100B90003A486430817349E04149886804F0E8FBD1
:100BA00040A20191009014211FA804F0C1FE1FA8CB
:100BB00004F045FAC4B2042C19D120212F48643026
:100BC0004172817218A8017F2C486430C17218A844
:100BD000417F2A486430017318A8817F2748643018
:100BE000417318A8C17F2548643081731EE0052C2D
:100BF0001CD1202121486430417218A8017F1F4870
:100C00006430817218A8417F1C486430C17218A8F2
:100C1000817F1A486430017318A8C17F1748643077
:100C2000417320A80178154864308173002404E0E2
:100C300000201FA90855601CC4B2142CF8DB002446
:100C400017494869002104F0C7FB65D81449486971
:100C50002CE00000170600107407001078787878F0
:100C60000000000060090010620700106D0700100E
:100C70006A07001073070010B40700104806001040
:100C8000B6070010C8070010F40700106666666615
:100C900066660A4000F88F40FF030000F00700106E
:100CA000900A0010252E31660000000004F060FB61
:100CB000FD4A0191009014211FA804F039FE1FA8DD
:100CC00004F0BDF9C4B2032C10D12021F748817281
:100CD000C17218A8017FF548017318A8417FF34835
:100CE000417318A8817FF148817354E0042C52D1DC
:100CF0002021EE48817218A8017FEC48C17218A823
:100D0000417FEA48017318A8817FE848417318A819
:100D1000C17FE64881733EE0E549486904F028FB5D
:100D2000E14A0191009014211FA804F001FE1FA8C0
:100D300004F085F9C4B2042C14D12021DB4841729F
:100D4000817218A8017FD948C17218A8417FD7487D
:100D5000017318A8817FD548417318A8C17FD34873
:100D6000817318E0052C16D12021D048417218A8B3
:100D7000017FCE48817218A8417FCC48C17218A863
:100D8000817FCA48017318A8C17FC848417320A851
:100D90000178C6488173002404E000201FA908558B
:100DA000601CC4B2142CF8DB0024C149086A00217D
:100DB00004F012FB40D8BE49086A04F0D9FABA4AD6
:100DC0000191009014211FA804F0B2FD1FA804F0A7
:100DD00036F9C4B2032C14D12021B44814308172E6
:100DE000C17218A8017FB1481430017318A8417F5F
:100DF000AE481430417318A8817FAC481430817319
:100E000064E0042C62D12021A8481430817218A813
:100E1000017FA6481430C17218A8417FA34814303E
:100E2000017318A8817FA1481430417318A8C17FAD
:100E30009E481430817349E09D49086A04F098FA8D
:100E4000994A0191009014211FA804F071FD1FA878
:100E500004F0F5F8C4B2042C19D1202193481430C1
:100E60004172817218A8017F90481430C17218A88D
:100E7000417F8E481430017318A8817F8B4814304D
:100E8000417318A8C17F8948143081731EE0052C76
:100E90001CD1202185481430417218A8017F834855
:100EA0001430817218A8417F80481430C17218A88C
:100EB000817F7E481430017318A8C17F7B481430AD
:100EC000417320A8017879481430817379480078FB
:100ED000C007C00F08D020217448283001734F216B
:100EE00041734E2181730BE072480078C007C00F38
:100EF00006D14F216D48283001734621417381731B
:100F00006C4800780221084208D0202167483C3014
:100F100001734F2141734E2181730BE065480078C6
:100F20000221084206D14F2160483C30017346211E
:100F3000417381735F4800780421084208D0202162
:100F40005A48503001734F2141734E2181730BE099
:100F5000584800780421084206D14F2153485030A8
:100F60000173462141738173524800780821084279
:100F700008D020214D48643001734F2141734E2128
:100F800081730BE04B4800780821084206D14F21BD
:100F90004648643001734621417381737C2246497F
:100FA000684604F027F8444810380FC8FFF792F855
:100FB00024B070BD10B5A0B040480078002804D11E
:100FC00001203E49087000F07FFF3D480078FF286F
:100FD00068D13C480078401E00013B49085C3B4911
:100FE000C87238480078401E0001374940184078E0
:100FF0003649087333480078401E000132494018D2
:101000008078324948732F480078401E00012E49ED
:101010004018C0782D4988732A480078401E000186
:101020002949401800792949C87326480078401E8C
:101030000001254940184079244908742448007863
:10104000642849DB23480078012804D12D211F485A
:101050001430417303E020211C4814304173642193
:101060001B480078FFF736F93030C1B2174814300A
:1010700081730A2116480078FFF72CF90C460A21E3
:101080002046FFF727F93030C1B210481430C17341
:1010900064210F480078FFF71DF930310B481430F8
:1010A000017452E05BE00000A40C0000C0060010D8
:1010B000900A001014060010880900106A0700103A
:1010C000730700106B0700106466000038070010FB
:1010D0006C0700106D070010EE4800780A281FDB2F
:1010E0002021ED484173ED480078012803D12D21DE
:1010F000E948817302E02021E74881730A21E5482D
:101100000078FFF7E7F83030C1B2E348C1730A2135
:10111000E0480078FFF7DEF83031DF48017414E072
:101120002021DD4841738173DC480078012803D118
:101130002D21D948C17302E02021D748C173D54879
:1011400000783030C1B2D44801747C22D44968465A
:1011500003F050FFD24810380FC8FEF7BBFF20B095
:1011600010BD10B50446CF480078FF2810D1CE48F6
:101170000078002806D10120CB4908700A20CB490D
:10118000087002E02820C94908700020C54908708D
:10119000C5480078012877D1C5480078002851D18A
:1011A000C4480078032806D0042816D0052826D085
:1011B000062845D131E0C0480078401CBE4908707F
:1011C00008460078072801DD012008700A20B74989
:1011D00008700020B749087033E0B7480078401E17
:1011E000B549087008460078012801DA0720087020
:1011F0000A20AE4908700020AE49087021E00120A5
:10120000AB4908700A20A94908700220A449103986
:1012100048800020A749087013E00120A649087003
:101220000020A3490870A04908700A209F4908704F
:1012300001209B491039488000209E49087000E039
:1012400000BFA9E09A48007801287ED1994800782B
:10125000012806D0022830D0052861D0062875D193
:1012600080E08E48007800280FD18A480078401C22
:101270008849087008460078642801DB64200870FB
:101280000A208A49087014E089E08448007801281F
:101290000FD180480078401E7E49087008460078CB
:1012A000002803DC002008707C4908700A207F4970
:1012B000087000207F4908706DE0764800780028AB
:1012C00002D101207549087074480078002811D1B6
:1012D00070480078401E6F49087008460078002862
:1012E00004DC0020087001206C4908700A206F4956
:1012F000087011E06948007801280DD16548007830
:10130000401C6449087008460078642801DB6420AA
:1013100008700A20654908700020664908703AE0A4
:101320005C480278644801782046FFF7B2FA002052
:10133000584908700120604908700020574908701A
:101340005B4908705849087001E025E022E00A2056
:1013500056490870012052491039488000205549EB
:10136000087018E000204B490870012052490870AD
:1013700000204A4908704E4908704B4908700A20FD
:101380004A490870012046491039488000204949DF
:10139000087000E000BF00BFFFF70CFE30E04548DA
:1013A0000078012815D0022826D144484088401CE6
:1013B00042494880084640880988884202DD012069
:1013C0003E4948800A203949087000203949087090
:1013D00013E03A484088401E384948800846408813
:1013E000002802DC0846008848800A202F4908703F
:1013F00000203049087000E000BF00BFFFF776FA18
:1014000010BD0C202D490880012048802C48006820
:1014100048602C4888602C48C8601430086114303B
:101420004861143088611430C86114300862143087
:101430004862143088621430C86214300863143073
:1014400048631430886370470220154910390880BA
:10145000012048801A48006848601C4888600E488F
:101460001438C86014300861704700B50246012086
:101470001149087000200749087008490870104891
:101480000260FFF7BEFFFFF7DFFF00201049087082
:1014900000BD00006C0700104C0700106D07001025
:1014A000140A0010D907001060070010150600107C
:1014B00061070010B20700106B07001078090010D8
:1014C0001C0600102006001048060010340600100C
:1014D0006A07001004212A4A116111460969490866
:1014E000490011612749087009787D22D2005143D3
:1014F000254A118070470146224A12784A43521EFB
:101500001F4B5A6100229A611A46126901231A433D
:101510001B4B1A6100BF1A4A1069C207D20F03D0D1
:10152000012212041042F6D0154A126952085200E4
:10153000134B1A6100229A6170470146124A1288C1
:101540004A43521E0E4B5A6100229A611A46126992
:1015500001231A430A4B1A6100BF094A1069C207E6
:10156000D20F03D0012212041042F6D0044A1269AD
:1015700052085200024B1A6100229A617047000023
:1015800000E000E06E0700107007001000202A49FC
:1015900008700120294908700020294908700A2094
:1015A00028490870002028490870642027490870DD
:1015B000704722480078002804DD20480078401E4B
:1015C0001E4908701F480078002804DD1D48007877
:1015D000401E1C4908701D480078002804DD1B4887
:1015E0000078401E194908707047002012490870A1
:1015F000134908701449087010480078002805DC69
:1016000001200E490870FF200B4908700D48007832
:10161000002805DC0A200B490870FF2008490870E3
:101620000A480078002805DC642008490870FF207B
:101630000549087070470000720700107507001018
:10164000730700107607001074070010770700106A
:1016500010B531480068401C2F4908600121002066
:1016600002F05DF90446002C08D02C480068401CAC
:101670002A4908600121002002F080F910BD10B550
:1016800027480068401C264908600121084602F0EE
:1016900046F90446002C08D022480068401C214925
:1016A00008600121084602F069F90521012002F0D5
:1016B00036F900280CD01C4880691C4908601C4879
:1016C0000068401C1A4908600521012002F056F903
:1016D00010BD10B50821022002F021F9002808D021
:1016E00014480068401C134908600821022002F0D9
:1016F00045F910BD10B50321084602F010F9002885
:1017000008D001F0B2FD0321084602F037F9FF20AE
:101710000949087010BD0000780700107C07001010
:10172000800700108407001000E000E09C07001014
:10173000980700108C0700101806001010B500283C
:1017400019DA8E4A03071B0F083B9B089B00D258EF
:101750008307DC0EFF23A3409A434B071B0E84072D
:10176000E40EA3401A43854B0407240F083CA40849
:10177000A4001A5118E0824A03231B02D2188308DE
:101780009B00D2588307DC0EFF23A3409A434B07EC
:101790001B0E8407E40EA3401A43794B0324240252
:1017A0001B198408A4001A5110BD10B50122002194
:1017B000032002F023F901220021032002F00AF99C
:1017C00001221146032002F019F9012211460320DB
:1017D00002F000F910BD10B501220221002002F034
:1017E0000DF901220221002002F0F4F84B218901B9
:1017F000012002F0F5FA01211320FFF79FFF0020DE
:101800006049087010BD10B55F480088642805DA8B
:101810005D480088401C5C49088002E000205A496D
:1018200008805948008857490978884205DA00221B
:101830000221104602F0CEF804E00122022100202D
:1018400002F0C8F810BD10B50446002C06D0012CDB
:1018500010D0022C15D0032C21D119E0012002F068
:1018600074FA01220221002002F0B4F80020454958
:10187000087014E0012002F05EFA1E204149087051
:101880000DE0012002F057FA3C203E49087006E0C6
:10189000012002F050FA64203A49087000BF00BFEE
:1018A00010BD10B53948C06BC008C0003749C863C7
:1018B0000846C06B012108433449C8630122114620
:1018C000104602F09BF801221146104602F082F801
:1018D0004B218901012003F0F1F903211120FFF7C9
:1018E0002DFF00202A49087010BD10B52948008836
:1018F000642805DA27480088401C2649088002E051
:10190000002024490880234800882149097888421A
:1019100005DA00220121084602F05CF804E0012209
:101920001146104602F056F810BD10B50446002CC2
:1019300007D0012C0ED103F09CF932201449087015
:1019400009E0012003F09FF901221146104602F040
:1019500041F800E000BF00BF10BD10B50446012CE7
:1019600005D100221146032002F034F804E00122E0
:101970000021032002F02EF810BD00001CED00E055
:1019800000E100E0A4070010A00700104040044060
:10199000A5070010A207001010B500220B2101209E
:1019A00002F02CF800220A21012002F027F8002280
:1019B0000821012002F022F800220921012002F072
:1019C0001DF800220321104602F018F8002204211D
:1019D000012002F013F800206B49087010BD10B50B
:1019E0000020694908700B21012001F0FEFF012150
:1019F000C902084214D165480078401C6349087048
:101A0000084600780A2810DD002008706048007839
:101A100000280AD101205C4908705D49087010BD9A
:101A200000205B490870594908700A21012001F023
:101A3000DCFF01218902084215D154484078401C3E
:101A400052494870084640780A2811DD0020487045
:101A50004F48407800280BD102204B4908700120E4
:101A60004B494870DBE700204949487047494870B6
:101A70000821012001F0B9FFFF210131084215D1F1
:101A800042488078401C41498870084680780A287E
:101A900011DD002088703E48807800280BD103209B
:101AA0003949087001203A498870B8E70020384960
:101AB0008870364988700921012001F096FF0121C4
:101AC0004902084215D13148C078401C2F49C870DE
:101AD0000846C0780A2811DD0020C8702C48C0785C
:101AE00000280BD104202849087001202849C8701B
:101AF00095E700202649C8702449C87003210020BA
:101B000001F073FF0821084215D120480079401CDC
:101B10001E490871084600790A2811DD0020087165
:101B20001B48007900280BD10520174908700120B7
:101B30001749087173E700201549087113490871A6
:101B40000421012001F051FF1021084215D10F4856
:101B50004079401C0D494871084640790A2811DD3A
:101B6000002048710A48407900280BD10620064918
:101B7000087001200649487151E700200449487166
:101B80000249487100BF4AE7B2070010A6070010DB
:101B9000AC07001010B501220921022001F02EFF30
:101BA00001220921022001F015FF01220A21022051
:101BB00001F024FF01220A21022001F00BFF012283
:101BC0000B21022001F01AFF10BD70B50446202C35
:101BD00001DBFF2403E0E006C00E11490C5C00228B
:101BE0000921022001F0F6FE002511E000220A2161
:101BF000022001F0EFFEE207D20F0B21022001F0DC
:101C0000E9FE641001220A21022001F0E3FE6D1CAE
:101C1000082DEBD301220921022001F0DBFE70BD6B
:101C2000E466000000BF0146421ED0B20029FAD18E
:101C3000704770B50646002510E000230AE0002436
:101C400004E0CB20FFF7EEFF601CC4B20F2CF8DBE2
:101C5000581CC3B2832BF2DB681CC5B2B542ECDB67
:101C600070BD10B5044600220521022001F0B2FE2D
:101C700000220421022001F0ADFE2146002002F0E6
:101C8000D5FC01220421022001F0A4FE012205213D
:101C9000022001F09FFE10BD10B50446012205216F
:101CA000022001F097FE00220421022001F092FEA2
:101CB0002146002002F0BAFC01220421022001F09A
:101CC00089FE01220521022001F084FE10BD70B5BD
:101CD00004462546E117090F091909110901611A7E
:101CE000C8B2FFF7BEFF2546E117090F0919091110
:101CF00008461030FFF7B5FF70BD10B50446202030
:101D0000FFF7AFFF2046FFF7ACFF10BD70B50546EB
:101D10000C462120FFF7A5FF2846FFF7A2FF20462B
:101D2000FFF79FFF70BD70B505460C462220FFF7F8
:101D300098FF2846FFF795FF2046FFF792FF70BDFA
:101D400010B504462146402211430846FFF789FF9B
:101D500010BD10B504468120FFF783FF2046FFF732
:101D600080FF10BD10B504468D20FFF77AFF214695
:101D7000102211430846FFF774FF10BD10B504464A
:101D80002146A02211430846FFF76BFF10BD10B596
:101D900004462146A42211430846FFF762FF10BD06
:101DA00010B504462146A62211430846FFF759FF05
:101DB00010BD10B50446A820FFF753FF2046FFF7DB
:101DC00050FF10BD10B504462146AE22114308460F
:101DD000FFF747FF10BD10B504462146B02211435E
:101DE0000846FFF73EFF10BD10B504462146C0224D
:101DF00011430846FFF735FF10BD10B50446D32048
:101E0000FFF72FFF2046FFF72CFF10BD10B504464B
:101E1000D520FFF726FF2046FFF723FF10BD10B5A2
:101E20000446D920FFF71DFF2046FFF71AFF10BD1B
:101E300010B50446DA20FFF714FF214602221143B1
:101E40000846FFF70EFF10BD10B50446DB20FFF774
:101E500008FF2046FFF705FF10BD10B5E320FFF790
:101E600000FF10BD70B50646002410E02046FFF7C5
:101E7000B2FF0020FFF72BFF002504E03046FFF7FC
:101E80000BFF681CC5B2802DF8DB601CC4B2082CA7
:101E9000ECDB70BDF8B507460026022411E02046B1
:101EA000FFF799FF0020FFF712FF002505E0B85D5E
:101EB000FFF7F2FE761C681CC5B2802DF7DB601CB4
:101EC000C4B2082CEBDBF8BD10B50020FFF7CAFF49
:101ED00010BDFFB581B00D4616461F462C4615E0D5
:101EE0002046FFF778FF3846FFF7F1FE002000900C
:101EF00006E00198FFF7D0FE0098401CC0B20090A9
:101F00000A9900988842F4DB601CC4B2701C8442B9
:101F1000E6DB05B0F0BD70B5002413E02046FFF706
:101F20005AFF0020FFF7D3FE002507E05520FFF7FA
:101F3000B3FEAA20FFF7B0FE681CC5B2402DF5DB4A
:101F4000601CC4B2082CE9DB70BD70B50020FFF73F
:101F500042FF0020FFF7BBFE002404E00120FFF752
:101F60009BFE601CC4B2802CF8DB0720FFF733FF18
:101F70000020FFF7ACFE002404E08020FFF78CFE79
:101F8000601CC4B2802CF8DB002411E02046FFF76F
:101F900022FF002508E02846FFF799FEFF20FFF703
:101FA0007BFE28467F30C5B2802DF4DB601CC4B2B6
:101FB000082CEBDB70BDFFB581B007460D46012F45
:101FC00002D0022F0BD104E0A8002818FF494418C2
:101FD00005E0681E81004018FD49441800BF00BF9D
:101FE0000398FFF7F8FE0498FFF771FE002605E05E
:101FF0002078FFF751FE641C701CC6B2052EF7DB7B
:102000000020FFF749FE05B0F0BDFFB581B00746DF
:102010000D461E462C46334660210120039AFFF7E9
:10202000CAFF0CE0217833463846039AFFF7C3FF16
:10203000641CB01DC6B22078002800D100E0F1E792
:1020400000BF05B0F0BDFFB583B005460E4617468C
:102050000295344619E02046FFF7BDFE0698FFF7CB
:1020600036FE002001900AE002990878FFF714FE7E
:102070000298401C02900198401CC0B201900C993B
:1020800001988842F0DB601CC4B2781C8442E2DB19
:1020900007B0F0BDFFB581B00F4614460498203854
:1020A00081004018C94945180198FFF794FE002F98
:1020B0000BD10020FFF70BFE002C03D10020FFF70F
:1020C000EBFD02E0FF20FFF7E7FD791CC8B2FFF748
:1020D000FEFD00260DE0002C03D12878FFF7DCFD83
:1020E00004E02978C943C8B2FFF7D6FD6D1C701C07
:1020F000C6B2052EEFDB002C03D10020FFF7CCFD8C
:1021000002E0FF20FFF7C8FD05B0F0BDF8B50646B8
:102110000F4614460025082E18DA08E023783A46C0
:1021200029463046FFF7B6FFA81D85B2641C20780B
:10213000002801D0012000E00020691C89B280291C
:1021400001DA012100E000210842E7D1F8BDFFB526
:1021500081B015461F46A320FFF783FD0298FFF7C5
:1021600080FD2846FFF77DFD0198002802D0012858
:1021700025D111E000240CE0E0B2FFF7E1FD0026DC
:1021800003E0C820FFF74EFD761C0A988642F8D37C
:10219000E419AC42F0D312E000240DE0291BC8B2D0
:1021A000FFF7CEFD002603E0C820FFF73BFD761CBD
:1021B0000A988642F8D3E419AC42EFD300BF00BFBF
:1021C0000020FFF7BDFD05B0F0BDFFB581B00446AE
:1021D0000D4616461F462146262211430846FFF7A4
:1021E00040FD0020FFF73DFD2846FFF73AFD384649
:1021F000FFF737FD3046FFF734FD2F20FFF731FDA5
:102200000A98FFF716FD05B0F0BDFFB581B0044692
:102210000D4616461F46A320FFF723FD3846FFF75D
:1022200020FD0A98FFF71DFD21462931C8B2FFF7AE
:1022300018FD0020FFF715FD2846FFF712FD0C984A
:10224000FFF70FFD3046FFF70CFD0B98FFF709FD78
:102250002F20FFF706FD0D98FFF7EBFC05B0F0BD52
:1022600010B52E20FFF7FDFC10BD10B50120FFF7C3
:10227000A9FD00240CE0E0B2FFF76BFDC820FFF7DA
:10228000D1FCC820FFF7CEFCC820FFF7CBFC641CB4
:10229000D02CF0D310BD10B5D0240DE0611EC8B213
:1022A000FFF757FDC820FFF7BDFCC820FFF7BAFCB9
:1022B000C820FFF7B7FC641E002CEFD10020FFF709
:1022C00081FD10BD10B50446002C02D0012C0ED1AA
:1022D00006E00020FFF776FD0120FFF758FD06E03D
:1022E0000020FFF754FD0120FFF76CFD00BF00BF89
:1022F00010BD0120FFF74BFD0BE00120FFF762FD51
:102300000220FFF796FC0020FFF75CFD0220FFF79C
:1023100090FCF2E710B50020FFF754FD8020FFF796
:1023200075FD3F20FFF745FD0020FFF766FD00200B
:10233000FFF706FD0020FFF715FD0220FFF7DDFC8B
:102340000120FFF71BFD0820FFF74EFD1020FFF7CF
:102350006FFDCF20FFF7FDFC2220FFF760FD40203E
:10236000FFF772FD0020FFF712FD0020FFF718FDB8
:102370000020FFF777FD0120FFF724FD10BD10B509
:1023800001220521022001F039FB0020FFF71AFD90
:102390008020FFF73BFD3F20FFF70BFD0020FFF7FC
:1023A0002CFD0020FFF7CCFC0420FFF7DBFC022013
:1023B000FFF7A3FC0120FFF7E1FC0820FFF714FD65
:1023C0001020FFF735FDCF2004E00000D4670000A7
:1023D000896C0000FFF7BDFCF120FFF720FD4020D5
:1023E000FFF732FD0020FFF7D2FC0020FFF7D8FCFA
:1023F0000020FFF737FD0120FFF7E4FC10BD00B51A
:1024000087B061A207CA04AB07C30020FFF72AFD0B
:10241000302300932823052202215E48FFF713FE94
:102420000520FFF706FCFFF736FF0520FFF701FC4C
:10243000FFF71BFF0520FFF7FCFB20230093012380
:10244000402200210846FFF782FE0520FFF7F1FB3E
:10245000202300930123402200211846FFF777FE36
:102460000520FFF7E6FBFFF7FBFE0520FFF7E1FB8A
:10247000012300222020019303930292009013462F
:1024800011461046FFF7C1FE0520FFF7D2FB0123DE
:1024900000221F21202003936B4607C313461146D9
:1024A0001046FFF7B2FE0520FFF7C3FB0223002210
:1024B0000121202003936B4607C31346032200210A
:1024C0000846FFF7A2FE0520FFF7B3FB0223002218
:1024D0001F21202003936B4607C3134603220021CC
:1024E0000120FFF792FE0520FFF7A3FB0223002245
:1024F0000121202003936B4607C3134607220421C2
:102500000120FFF782FE0520FFF793FB0223002244
:102510001F21202003936B4607C313460722042183
:102520000020FFF772FE0520FFF783FBFFF798FE00
:102530000520FFF77EFBFF20FFF794FC0520FFF747
:1025400078FBFFF7E8FC0520FFF773FB0020FFF79F
:1025500089FCFFF7FAFC0520FFF76BFB252303221C
:1025600004A90120FFF751FD07B000BD10B5002000
:1025700001F0B6FE02220821002001F0A8FFFFF7BB
:10258000FEFEFFF7A1FC10BD354E49564953494F99
:102590004E0000001467000010B500240022052141
:1025A000012001F02BFA04E0601CC4B20120FEF708
:1025B000A2FF0521012001F018FA2021084201D0D4
:1025C000642CF1DB642C01DB012010BD002404E04D
:1025D000601CC4B20120FEF78EFF0521012001F02E
:1025E00004FA2021084201D1642CF1DB642C01DBC8
:1025F0000120EAE70020E8E710B5002404E0601CB1
:10260000C4B20120FEF777FF0521012001F0EDF9AA
:102610002021084201D0642CF1DB002404E0601C7E
:10262000C4B20120FEF767FF0521012001F0DDF9AA
:102630002021084201D1642CF1DB2820FEF75BFF4A
:102640000521012001F0D1F92021084201D001200B
:1026500010BD0020FCE770B50024002506E06006F0
:10266000040EFFF7C9FF0443681CC5B2082DF6DB52
:10267000204670BD7CB505460E46FFF78DFF00284D
:1026800024D1002405E0FFF7E6FF69460855601CE9
:10269000C4B2052CF7DB6846017840780918684613
:1026A000807809186846C078091868460079814220
:1026B0000ED1684600783070684640787070684681
:1026C000807828706846C078687001E001207CBD81
:1026D0000020FCE710B52A480078002806D0012821
:1026E00012D0022814D014282DD128E0012205216F
:1026F000104601F083F900220521012001F06AF95A
:1027000001201F49087024E002201D49087020E0C4
:1027100001220521104601F05DF91E20FEF7EBFEB7
:1027200018491948FFF7A6FF002802D1FF201749D2
:10273000087013480078401C1149087009E0002017
:102740000F49087005E00E480078401C0C490870DD
:1027500000BF00BF10BD10B501220521104601F0D9
:102760004DF901220521104601F034F900200749F6
:10277000087005490870487002490870487010BD1B
:10278000B3070010B6070010B4070010B807001018
:1027900008B50021009101226946882002F0E2F884
:1027A00001226946882002F0C6F86846007808BD14
:1027B00008B50121009101226946882002F0D2F873
:1027C00001226946882002F0B6F86846007808BD04
:1027D000704708B5002168460170802141700222CF
:1027E0006946882002F0BEF8A948AA49086001207D
:1027F0000004A949086008BD38B5002404210091EF
:1028000001226946882002F0ADF80122694688203D
:1028100002F091F86846047805210091012269468A
:10282000882002F09FF801226946882002F083F890
:10283000684600780002044396480068444396487E
:102840000168204602F0AEFB0446204638BD38B58C
:102850000546FFF79DFF044620460C2188430446A9
:10286000A8002043C4B200216846017044700222CF
:102870006946882002F076F838BD38B50446FFF77F
:1028800087FF0546AD08AD002846204305460021D8
:1028900068460170457002226946882002F062F89D
:1028A000002C06D0012C09D0022C0CD0032C13D103
:1028B0000EE001200004784908600DE001200003CB
:1028C0007549086008E0FF2001307349086003E0A3
:1028D00010207149086000BF00BF38BD38B50446FC
:1028E000FFF766FF054628460C2188430546A000F1
:1028F0002843C5B20121684601704570022269462D
:10290000882002F02FF8002C06D0012C08D0022CD1
:102910000AD0032C10D10BE05D485E4908600BE043
:102920005E485C49086007E05D485A49086003E07A
:102930005C485849086000BF00BF38BD38B5044640
:10294000002555490968614308465249096802F063
:1029500029FB05460221684601702804010E6846DD
:10296000417002226946882001F0FCFF38BD38B56D
:1029700004460025484909686143084645490968F5
:1029800002F010FB05460321684601702804010E81
:102990006846417002226946882001F0E3FF38BD95
:1029A00038B50546FFF704FF04462046202188433A
:1029B00004462046284304460121684601704470BD
:1029C00002226946882001F0CDFF38BD10B5FFF71F
:1029D000EFFE044620202040400910BD38B5FFF727
:1029E000E7FE0446204620218843044641216846EC
:1029F0000170447002226946882001F0B3FF38BD9F
:102A000038B5FFF7C5FE04462046802188430446BA
:102A1000002168460170447002226946882001F056
:102A2000A1FF20464021084304460021684601706A
:102A3000447002226946882001F094FF38BD10B529
:102A4000FFF7DAFE044618480078401C1649087063
:102A5000084600780A2806DB002008701348046046
:102A6000FF201349087010BD10B50021012001F0AE
:102A700009FFFFF7ADFEFFF7C3FFFFF7AAFE012036
:102A8000FFF72CFF00200A4908700849086010BDB4
:102A9000CD030000BC070010C0070010340F000079
:102AA000D03C000040F30000C4070010C80700102D
:102AB000CC07001008B509210091012269463A208F
:102AC00001F050FF012269463A2001F034FF6846C8
:102AD000007808BD08B516210091012269463A2008
:102AE00001F040FF012269463A2001F024FF6846C8
:102AF000007808BD38B50446162168460170447058
:102B0000022269463A2001F02DFF38BD10B505209C
:102B1000FFF7F0FF10BDF8B504460D46164600BF9E
:102B2000FFF7C8FFC007C00FFAD0062100910122AD
:102B300069463A2001F016FF012269463A2001F069
:102B4000FAFE6846007840B2207007210091012209
:102B500069463A2001F006FF012269463A2001F059
:102B6000EAFE6846007840B22870082100910122F0
:102B700069463A2001F0F6FE012269463A2001F04A
:102B8000DAFE6846007840B23070F8BD70B5054690
:102B90000024FFF79FFF044620460C21884304468B
:102BA000A8002043C4B22046FFF7A4FF70BD70B553
:102BB00005460024FFF78EFF0446A408A400204623
:102BC000284304462046FFF795FF70BDF0B58BB053
:102BD000FB4900200856802108423FD1F8480024D4
:102BE0000457204602F08EFBF649039002F02FFABC
:102BF000074602F0BDFBF44AF44B0591049002F045
:102C0000A3FA0022F24B0791069002F003FB099110
:102C1000089002F0C4FBEA494860402C02DBED4812
:102C200088605FE0204602F06DFB8521C9050390B6
:102C300002F04AFA074602F09BFB0591049003F06C
:102C4000A9FBE54AE54B0791069002F07DFA099150
:102C5000089002F0A4FBDA49886043E0D8480024D9
:102C60000457601E44B2E443204602F04BFB074683
:102C700002F07EFBD44AD54B0591049002F064FA31
:102C80000022D34B0791069002F0C4FA09910890F4
:102C900002F085FBCA494860402C02DBD0488860BE
:102CA00020E0204602F02EFB8521C905019002F0AC
:102CB0000BFA074602F05CFB0391029003F06AFBFB
:102CC0000022C84B0591049002F03EFAC24AC34B61
:102CD0000791069002F038FA0991089002F05FFB24
:102CE000B7498860B6490C2008568021084240D177
:102CF000B3480C254557284602F004FBB149039020
:102D000002F0A5F9074602F033FBAF4AAF4B05913D
:102D1000049002F019FA0022AD4B0791069002F0E0
:102D200079FA0991089002F03AFBA5490861402D13
:102D300003DBA849A248416160E0284602F0E2FABC
:102D40008521C905039002F0BFF9074602F010FB88
:102D50000591049003F01EFB9F4AA04B079106903B
:102D600002F0F2F90991089002F019FB94494861C8
:102D700044E093480C254557681E45B2ED4328466C
:102D800002F0C0FA074602F0F3FA8F4A8F4B059122
:102D9000049002F0D9F900228D4B0791069002F0C1
:102DA00039FA0991089002F0FAFA85490861402D34
:102DB00003DB8B498248416120E0284602F0A2FAF9
:102DC0008521C905019002F07FF9074602F0D0FA8B
:102DD0000391029003F0DEFA0022824B05910490E9
:102DE00002F0B2F97C4A7D4B0791069002F0ACF9F3
:102DF0000991089002F0D3FA71494861704918208E
:102E000008568021084240D16D4818268657304622
:102E100002F078FA6B49039002F019F9074602F0C4
:102E2000A7FA694A694B0591049002F08DF90022D6
:102E3000674B0791069002F0EDF90991089002F0B6
:102E4000AEFA5F49C861402E03DB62495C4801620B
:102E500060E0304602F056FA8521C905039002F081
:102E600033F9074602F084FA0591049003F092FAD0
:102E7000594A5A4B0791069002F066F90991089059
:102E800002F08DFA4E49086244E04D4818268657F4
:102E9000701E46B2F643304602F034FA074602F09E
:102EA00067FA494A494B0591049002F04DF9002216
:102EB000474B0791069002F0ADF90991089002F096
:102EC0006EFA3F49C861402E03DB45493C48016228
:102ED00020E0304602F016FA8521C905019002F083
:102EE000F3F8074602F044FA0391029003F052FA15
:102EF00000223C4B0591049002F026F9364A374BEC
:102F00000791069002F020F90991089002F047FA23
:102F10002B4908620BB0F0BD0EB56A4601A902A8A4
:102F2000FFF7F9FD30480188684608228256881864
:102F300000B22D4908802D48018868460422825637
:102F4000881800B22949088029480188684600226B
:102F50008256881800B22649088026480078401C0E
:102F600024490870084600780A2827DB00200870EA
:102F70000A211D4A105EFDF7ADF940B210490870F4
:102F80000A211A4A0020105EFDF7A4F940B20C494C
:102F900008730A21164A0020105EFDF79BF940B223
:102FA00007490876FFF712FE00200F4908800F49F5
:102FB00008800F490880FF200F4908700EBD0000EF
:102FC000900A0010000080BF9A999999999923401E
:102FD000000050400000B442295C8FC2F5A84C406C
:102FE0000000B4C20000F0BFD0070010D2070010EC
:102FF000D4070010CE070010D607001010B5FFF759
:1030000085FD0020094908700949087048608860FA
:1030100008730021064801614161002004490876D7
:1030200000210348C161016210BD0000D6070010F5
:10303000900A0010014600200B785B1EDAB20022D5
:1030400004E08B5C1B18D8B2531CDAB20B789342A5
:10305000F7DC704770B504460D46002C28D10022DD
:103060000721022000F0B6FC00BF6D48C0680221B5
:10307000084204D06A48C0681021084201D00120EB
:1030800000E000200028F0D16548856000BF64485A
:10309000C06810210842FAD100BF6148C0681421FD
:1030A00008400428F9D101220721022000F092FCF7
:1030B0005B48806880B270BDF3B581B00D46802258
:1030C0000821002001F003FA0198FFF7B3FF0090F8
:1030D000AA210020FFF7BEFF0024BB210020FFF73C
:1030E000B9FF2855641C00270AE00198C15D002043
:1030F000FFF7B0FF2855641C0120FEF71EFA7F1C65
:1031000001980078B842F0D800200099FFF7A2FF9C
:103110002855641CC820FEF710FA012028700021F1
:103120000846FFF797FFAA2806D0022208210020B0
:1031300001F0CDF90020FEBD0120FEF7FEF90021CF
:103140000846FFF787FFBB2806D00222082100208F
:1031500001F0BDF90020EEE70120FEF7EEF901983D
:103160004078012806D0202806D0212806D0222821
:1031700008D105E00B2607E0072605E0132603E04B
:10318000032601E0072600BF00BF0027002409E056
:1031900000210846FFF75EFF28550120FEF7CDF914
:1031A0007F1C641CB742F3D902220821002001F0E1
:1031B0008EF9E0B2BFE710B50821022000F015FC3F
:1031C000FF210131084215D116480078401C1549ED
:1031D0000870084600780A2812DD0020087012489E
:1031E000007801280CD102200F490870FF200F49F8
:1031F000087005E000200B49087001200A4908709A
:1032000010BD10B500220821022000F0F7FB0122BA
:103210000821022000F0DEFB00200449087010BDE8
:1032200000000440D7070010D8070010D90700108D
:1032300070B504460D4600221146022000F0CAFB7C
:10324000E80080221043620010430146012001F093
:10325000EDF90021012001F0E9F9C6B201220021B7
:10326000022000F0B7FB304670BD10B502210020EF
:10327000FFF7DEFF0446A406A40E042C13D10021A0
:103280000846FFF7D5FF9A499A4A12888854994808
:103290000088401C9749088008460088802807DB82
:1032A0000020088004E000210846FFF7C1FF044623
:1032B00002210120FFF7BCFF0446A406A40E042C43
:1032C00011D100210120FFF7B3FF8B4908708B4813
:1032D0000088401C8949088008460088802807DB50
:1032E0000020088004E000210120FFF7A1FF044630
:1032F00010BD70B504460D46164600221146022048
:1033000000F068FBE800620010430146012001F074
:103310008DF93146012001F089F9012200210220B6
:1033200000F058FB70BDF8B505460E46BF220321DC
:103330002846FFF7DEFF02212846FFF779FF044603
:10334000204610210843024602212846FFF7D1FFFC
:10335000032211462846FFF7CCFF01212846FFF73C
:1033600067FF044620461021884302460121284673
:10337000FFF7BFFF04212846FFF75AFF0446204607
:1033800080218843024604212846FFF7B2FF8322AA
:1033900003212846FFF7ADFF3146E120000301F08D
:1033A00001FE84B2E2B200212846FFF7A2FF2212FA
:1033B00001212846FFF79DFF032211462846FFF70B
:1033C00098FF00212846FFF733FF0022032108461B
:1033D00000F014FB00231A4603210846009300F076
:1033E00067F90321084600F042FA012211462846F7
:1033F000FFF77FFF00212846FFF71AFFF8BD70B5E1
:1034000005460C4600BF05212846FFF711FF202185
:103410000842F8D0224600212846FFF76AFF70BD17
:1034200010B5044621460020FFF7E9FF10BD10B596
:10343000044604E021780020FFF7E1FF641C2078B7
:103440000028F7D110BD10B5044621460120FFF732
:10345000D6FF10BD10B5044604E021780120FFF727
:10346000CEFF641C20780028F7D110BD0246002A48
:1034700017D1234800881F4B1B88984227D01C482F
:103480001F4B1B88C05C08701D480088401C1C4BEB
:10349000188018460088802801DB00201880012051
:1034A000704718480088154B1B8898420FD0124867
:1034B0000078087013480088401C124B188018468A
:1034C0000088802801DB002018800120E8E7002028
:1034D000E6E710B5044621460020FFF7C7FF10BD00
:1034E00010B5044621460120FFF7C0FF10BD0000C3
:1034F000B40A0010DA070010340B0010DE070010C9
:10350000DC070010E007001070B5002001F0E0FAC1
:103510000446032001F0DCFA05461C480068001947
:103520001A4908601A480068401919490860194882
:103530000078401C17490870084600780A2817DBF5
:10354000002008700A211148006801F02BFD124983
:1035500008600A210E48006801F024FD0F49086048
:1035600000200A4908600A490860FF200C490870D9
:1035700070BD10B50B4801F06CFA002008490870C6
:10358000054908600549086010BD0000E807001003
:10359000EC070010E4070010F0070010F40700101B
:1035A000F8070010009F24003149324A11600121C0
:1035B000314A11605160002151600121516000BF0A
:1035C0002D494968C907C90FFAD02B494039886885
:1035D000400A40022021014303221143264A403A77
:1035E00091602649896B80229143244A916300BFF0
:1035F00021494039C968C907C90FF9D003211E4ABA
:10360000116301215163002151630121516300BF06
:103610001949496BC907C90FFAD00121164A9163AC
:10362000144909688900164A116011460968154A4B
:103630001160704700B502200F4940390860002032
:1036400008620E48806B202188430C498863002360
:1036500000E05B1CFF2BFCD9FFF7A6FF06484030BB
:10366000006801210904084303494031086000BD96
:10367000001BB700FC07001040800440008204409B
:10368000000800100408001010B5F348006840213D
:103690000843F14908601F2000F0D7F91E2000F010
:1036A000D4F91D2000F0D1F91C2000F0CEF910BD96
:1036B00070B5049C002806D0012838D002286AD0B2
:1036C00003287BD19CE0002A18D1E44D6D680126C7
:1036D0008E40B543E14E7560002B07D13546AD688D
:1036E00001268E40B543DD4EB5600EE0DB4DAD6882
:1036F00001268E403543D94EB56006E0D74D6D6842
:1037000001268E403543D54E7560002C07D1D34D30
:10371000ED6801268E40B543D04EF56006E0CF4DF2
:10372000ED6801268E403543CC4EF5609DE0002AC1
:1037300018D1CB4D6D6801268E40B543C84E7560DB
:10374000002B07D13546AD6801268E40B543C44EE7
:10375000B5600EE0C24DAD6801268E403543C04EC7
:10376000B56006E0BE4D6D6801268E403543BC4E07
:103770007560002C07D1BA4DED6801268E40B54327
:10378000B74EF56006E0B64DED6801268E40354334
:10379000B34EF56069E0002A19D1B24D6D6801267B
:1037A0008E40B543AF4E7560002B08D13546AD68ED
:1037B00001268E40B543AB4EB5600FE054E0A94DF5
:1037C000AD6801268E403543A64EB56006E0A54D96
:1037D0006D6801268E403543A24E7560002C07D1DE
:1037E000A04DED6801268E40B5439E4EF56006E083
:1037F0009C4DED6801268E4035439A4EF56034E0CD
:10380000002A18D1984D6D6801268E40B543964E1A
:103810007560002B07D13546AD6801268E40B54353
:10382000914EB5600EE0904DAD6801268E40354357
:103830008D4EB56006E08C4D6D6801268E40354397
:10384000894E7560002C07D1874DED6801268E40AA
:10385000B543854EF56006E0834DED6801268E4048
:103860003543814EF56000E000BF00BF70BD002809
:1038700006D001280CD0022812D0032820D117E04E
:10388000764A126901238B401A43744B1A6118E07F
:10389000734A126901238B401A43714B1A6110E07D
:1038A000704A126901238B401A436E4B1A6108E07B
:1038B0006D4A126901238B401A436B4B1A6100E079
:1038C00000BF00BF7047002806D001280CD0022896
:1038D00012D0032820D117E0604A126901238B40DF
:1038E0009A435E4B1A6118E05D4A126901238B40CE
:1038F0009A435B4B1A6110E05A4A126901238B40CC
:103900009A43584B1A6108E0574A136901228A40CA
:103910009343554A136100E000BF00BF704710B5E4
:1039200002460020002A06D0012A0CD0022A12D01A
:10393000032A20D117E0494B9B6901248C40234284
:1039400000D0012018E0464B9B6901248C402342A3
:1039500000D0012010E0434B9B6901248C4023429E
:1039600000D0012008E0404B9B6901248C40234299
:1039700000D0012000E000BF00BF10BD002806D02D
:1039800001280CD0022812D0032820D117E0334A96
:10399000D26901238B401A43304BDA6118E0304A78
:1039A000D26901238B401A432D4BDA6110E02D4A76
:1039B000D26901238B401A432A4BDA6108E02A4A74
:1039C000D26901238B401A43274BDA6100E000BF24
:1039D00000BF704730B513468B408400234D2D59EE
:1039E00001248C40A4002B5130BD024690001F4B97
:1039F0001B580120884080001858704730B5002AB5
:103A000011D08300194CE3580124E4031B191B68EF
:103A100001248C4023438400144D2C590125ED03CF
:103A20006419236010E08300104CE3580124E40380
:103A30001B191B6801248C40A34384000B4D2C5997
:103A40000125ED036419236030BDC206D20E0121A9
:103A50009140074A11607047808004400080005008
:103A6000008001500080025000800350A06E0000D2
:103A700000E100E070B500BF864A9268D0B2401005
:103A80004007400F032820D1824A5269D1B29E22BA
:103A9000114205D0804A11607E4A1268D3B270BDCF
:103AA000CA07D20F3ED07B4C2468E5B27B4C22681B
:103AB000541C7A4E34607A4CA55432461268402A1F
:103AC00030D30022344622602CE0022811D1714C00
:103AD0002468E5B2714C2268541C704E3460704CFE
:103AE000A55432461268402A1CD300223446226074
:103AF00018E0062807D1684A1268FF2401342243DF
:103B0000654C22600EE001280CD1624A5269D1B2A4
:103B10002022114203D00122624C227002E00022D6
:103B2000604C227000BFBAE7F8B5044601205D4939
:103B3000087000205949086000BF1520012181400C
:103B40005948016000BF5948406AC008C000574941
:103B500048620846406A01210843544948620846C1
:103B6000806AC008C00088620846806A0121084354
:103B70004E4988624E4800680121090308434C49B8
:103B800008600120886183204249C86048488769ED
:103B900039464848006801F005FA060921463046D2
:103BA00001F000FA0546280A3A494860E8B2086080
:103BB0000320C860072088600846476900BF354871
:103BC0004069602108406028F9D101E03148076868
:103BD00030484069C007C00FF8D100BF152001214F
:103BE000814031488038016000BF05202949486084
:103BF000F8BD0AE000BF274A526920231A42FAD0D2
:103C00000278244B1A60401C491E0029F2D17047EB
:103C100000BF2049496920221142FAD01D4908609D
:103C2000704700B5034603E018785B1CFFF7F0FF10
:103C300018780028F8D100BD0FB400B59BB01DA8BE
:103C40000090642101A8009B1C9A01F087FE01A846
:103C5000FFF7E7FF1BB008BC04B018470146164841
:103C600000680E4A1268904211D00D48124A12683C
:103C7000805C087010480068401C0F4A10601046B5
:103C80000068402801D30020106001207047002008
:103C9000FCE7000000800040140800100C08001031
:103CA000B40B00100808001080E100E080400440E0
:103CB00080800440040800101008001070B504460D
:103CC0000D46002C1AD10220FB4948600020C86034
:103CD0007D21C900F948006801F064F96843F6499C
:103CE0008861FF200860042048610120486000BF0F
:103CF000F1484068C007C00FFAD11BE0012C19D170
:103D00000220EF4948600020C8607D21C900EB48CF
:103D1000006801F047F96843E9498861FF200860BD
:103D2000042048610120486000BFE5484068C007A2
:103D3000C00FFAD170BD002803D10121DE4A5160C5
:103D400002E00121DE4A51607047002803D10021C2
:103D5000D94A516002E00021D94A5160704710B53C
:103D60000020FFF7F2FFD4480068C007C00F06D05C
:103D70000120D1490860FEF7ADFCFDF71AFCCE48E2
:103D800000681021084202D01020CB4908600020B2
:103D9000FFF7D1FF10BD10B5C9480068C007C00FBC
:103DA00004D00120C6490860FDF72DFDC448006815
:103DB0001021084202D01020C149086010BD014600
:103DC000002906D1BC4A506802221043BA4A50600A
:103DD00005E0BB4A506802221043B94A5060704760
:103DE00070B504460D46002C3CD1B6480068012150
:103DF00049020843B3490860B348406AC008C0009C
:103E0000B14948620846406A02210843AE49486207
:103E10000846806AC008C00088620846806A02219D
:103E20000843A9498862A84880380069C008C000D2
:103E3000A549803908610846006902210843A24962
:103E4000803908610020A1490860A14908609A48AA
:103E5000856105209849886203204861122000F09E
:103E600050F916E0012C14D196480068A1020843CD
:103E70009449086000209749086097490860904875
:103E8000856105208E49886203204861132000F077
:103E900038F970BD70B504460D46002C12D1894822
:103EA00000680121490208438649086000208749CB
:103EB00008608148856103207F494861122000F035
:103EC00020F912E0012C10D17E480068A1020843BD
:103ED0007C49086000207F4908607948856103209B
:103EE00077494861132000F00CF970BD30B50546E4
:103EF0000C4613462846FFF728FF012D62D1714872
:103F00000068A90208436F490860B320C000184345
:103F10006B49C863D807C00F0ED06B484038C06BE0
:103F2000C008C00068494039C8630846C06B032117
:103F3000084365494039C863022003420BD06248F8
:103F40000068C008C0006049086008460068032196
:103F500008435D490860042003420BD05A480069B9
:103F6000C008C00058490861084600690321084399
:103F700055490861082003420BD053484069C008E6
:103F8000C0005149486108464069022108434E4932
:103F90004861012018434A49403148634F48046052
:103FA0000068474948624D480068400888614B48AE
:103FB00000684008C861494800684008086202205B
:103FC000486155E03F4800680121490208433D49E6
:103FD0000860CB20C00018433749C8630220034261
:103FE0000BD03948806AC008C0003749886208464B
:103FF000806A0221084334498862042003420ED0BB
:10400000314880380069C008C0002F4980390861F4
:1040100008460069022108432B49803908610820BD
:1040200003420ED028484038406BC008C0002649E3
:10403000403948630846406B032108432249403910
:104040004863082018431C494031486324480460F1
:104050000068194948622248006888612048006861
:104060004008C8611E480068400808620815486199
:1040700030BD002816D0002906D0012907D002291A
:1040800008D003290CD108E00D4B9A6109E00C4BD4
:10409000DA6106E00A4B1A6203E0094B5A6200E05B
:1040A00000BF2DE000291DD001291ED002291FD0FC
:1040B000032923D11FE00000004001400408001044
:1040C00000800140808004408040044018080010B7
:1040D000200800101C080010240800102C080010F4
:1040E000280800100A4B9A6109E0094BDA6106E0E2
:1040F000074B1A6203E0064B5A6200E000BF00BFA4
:104100007047C206D20E01219140024A11607047E9
:104110000040014000E100E0FE49C869C107C90F45
:1041200007D0FD490968491CFB4A11600121F94A81
:1041300011620221084207D0F8490968491CF74A70
:1041400011600221F34A11620421084204D0F449AB
:104150000968491CF24A11607047F249C869C107F1
:10416000C90F07D0F0490968491CEF4A11600121C5
:10417000EC4A11620221084207D0EC490968491C47
:10418000EA4A11600221E74A11620421084204D080
:10419000E7490968491CE64A1160704710B50446B2
:1041A000002C47D1E348406801210843E1494860B9
:1041B000E04880300068C9140843DE498031086057
:1041C00002204861DC48006AC008C000DA49086281
:1041D0000846006A01210843D74908620846406A38
:1041E000C008C00048620846406A01210843D2491D
:1041F00048620120D04940310863CF490863CD4867
:104200008030006840210843CA4980310860CA48AC
:104210004038C069C008C000C7494039C8610122A0
:1042200002210020FFF7EAFB012202210020FFF714
:10423000D1FB54E0BF48406804210843BD494860B1
:10424000BC4880300068012189040843B9498031A5
:1042500008600220C861B848C069C008C000B649FB
:10426000C8610846C06902210843B349C861B24821
:104270004030C068C008C000AF494031C86008463F
:10428000C06802210843AC494031C860AA484038A0
:10429000806AC008C000A849403988620846806A20
:1042A00002210843A44940398862A248803000684E
:1042B000402108439F49803108609F48403880680A
:1042C000C008C0009C4940398860012200210220BA
:1042D000FFF794FB012200210220FFF77BFB10BDBA
:1042E00010B50446002C69D192484068012108436A
:1042F000904948608F4880300068C91408438D4950
:1043000080310860022048618B48006AC008C00004
:10431000894908620846006A012108438649086203
:104320000846406AC008C00048620846406A012149
:1043300008438149486202207F49403108637E4931
:10434000C8607C488030006840210843794980314A
:10435000086079480068C008C000774908600122F9
:1043600004210220FFF74AFB012204210220FFF76B
:1043700031FB714840380068C008C0006E494039C0
:104380000860012206210220FFF738FB01220621E6
:104390000220FFF71FFB68484038006AC008C000D1
:1043A000654940390862012207210220FFF726FBF8
:1043B000012207210220FFF70DFB54E05D48406811
:1043C000042108435B4948605A4880300068012155
:1043D000890408435749803108600220C861564863
:1043E000C069C008C0005449C8610846C0690221BC
:1043F00008435149C86150484030C068C008C000F7
:104400004D494031C8600846C068022108434A4906
:104410004031C86048484038806AC008C0004649FA
:10442000403988620846806A02210843424940397F
:104430008862404880300068402108433D4980310F
:1044400008603D4840388068C008C0003A4940399B
:104450008860012200210220FFF7D0FA012200210A
:104460000220FFF7B7FA10BD70B5054600BF002D5A
:1044700016D1324827490860FE200861002404E074
:1044800024488068C6B2601CC4B2082CF8DB142033
:1044900000F003F902201F4948600320486115E03D
:1044A00026482049086002200861002404E01D48D5
:1044B0008068C6B2601CC4B2082CF8DB0E2000F085
:1044C000ECF80220174948600320486170BDF8B538
:1044D00007460D46164600980090002F30D1681E02
:1044E0000721090208430B490860084606610024B9
:1044F00005E008488068C0B20090601CC4B2082C77
:10450000F7DB142000F0C9F80220024948600320BC
:1045100048612FE000000440340800103808001003
:1045200030080010008005404008001044080010CA
:104530003C08001000800440404004400707000091
:10454000681E0721090208435749086008460661AA
:10455000002405E054488068C0B20090601CC4B2DA
:10456000082CF7DB0E2000F098F802204E49486036
:1045700003204861F8BD70B500BF00232DE000287E
:1045800015D100BF494DED6812263540022DF9D1F5
:104590000D78464EB560491C00BF444DED681426A9
:1045A0003540042DF9D1414DAD68ECB214E000BFA7
:1045B0003D4DED6812263540022DF9D10D783A4E69
:1045C000B560491C00BF384DED6814263540042DF8
:1045D000F9D1354DAD68ECB25B1C9342CFD370BDC1
:1045E00030B500231FE000280ED1FF242F4DAC6012
:1045F00000BF2E4CE46814252C40042CF9D12B4C20
:10460000A4680C70491C0DE0FF24274DAC6000BF6E
:10461000254CE46814252C40042CF9D1224CA468C4
:104620000C70491C5B1C9342DDD330BD0246002A4E
:1046300019D100BF1D48C068122318400228F9D1C3
:104640001A48816000BF1948C06810231842FAD187
:1046500000BF1648C068142318400428F9D1134835
:10466000806880B2704700BF0F48C06812231840AE
:104670000228F9D10C48816000BF0B48C0681023A4
:104680001842FAD100BF0848C06814231840042813
:10469000F9D10548806880B2E4E7C206D20E012154
:1046A0009140034A116070470080054000000440BB
:1046B00000E100E010B5012080074068C1B2480762
:1046C000400F75D1CB1001F072F90CB3071523AB75
:1046D000393AB464AC7496B30020AC4A1060AC486C
:1046E0000078012292079060282090610120A94A59
:1046F0001060A2E00020A84A1060A54800780122BE
:1047000092079060282090610220A24A106094E0F5
:10471000A048006801280DD19C4A1068421C9B4BA0
:104720001A609E4A1268125C01239B079A6004205B
:10473000984A10600820C20690617EE000BF93484E
:104740000068974A126890420ED2904A1068421C44
:104750008E4B1A60914A1268125C01239B079A6083
:1047600004208C4A106010E08E480068002806D0B3
:104770002020420610600320864A106005E00520D4
:10478000844A10601020820610600820C2069061E2
:1047900053E084480068012803D104200207906197
:1047A00002E00420020710600820C206906144E085
:1047B0003EE0012292079268D3B2774A1068421C09
:1047C000754C2260784A1268135420460068754A76
:1047D0001268904205D204206E4A106002071060F1
:1047E00005E005206B4A1060042002079061082054
:1047F000C206906121E0012292079268D3B2664A14
:104800001068421C644C2260674A126813540520E9
:10481000604A1060102082061060082090610CE051
:1048200000BF0820C206906105205A4A106004E0CB
:1048300000BF0820C206906100BF00BF10BD00216C
:104840000020202253061A600BE0524A1268012A07
:1048500001D1FF2006E0554A914201D3002001E03A
:10486000491CF2E700BF704710208106086008204D
:10487000886100BF01208007006810210842F9D13B
:10488000FF20704702464A48406802231843484BBD
:10489000586047488030006820231843444B8033D9
:1048A00018604448006B80098001424B1863184629
:1048B000006B012318433F4B18631846406B800977
:1048C000800158631846406B01231843394B5863E5
:1048D0006C201B049861FF20813058611861022A06
:1048E00001D15007C16000BF0F200123834032482F
:1048F000036000BF402003061860FF20704700B52A
:104900000020244908602449086020490860FFF716
:1049100096FFFF2803D0FFF7A7FF002000BD06E0A9
:104920001C480068052802D1FFF79EFF00E0F7E76A
:1049300000BFFF20F2E770B504460D46164620463C
:1049400001210843124908701748056015480660A0
:10495000012013490860FFF7D2FF1248006811498F
:10496000086070BD70B504460D46164608480470D0
:104970000A4805600A48066000200A490860FFF7F7
:10498000BEFF074800680649086070BD580800105F
:10499000700800104808001054080010600800104B
:1049A0006C0800106808001064080010FFFFFF008A
:1049B000008004400040044000E100E070B505467E
:1049C0006848806B102188436649886366480068A0
:1049D00001214903084364490860002404E00020E1
:1049E000A100624A5050641C082CF8D3604840690A
:1049F0008F2188435E494861084640690121084388
:104A00005B4948615A484038C06A8F2188435849F9
:104A10004039C8620846C06A0121084354494039F8
:104A2000C862534880698F2188435149886108468C
:104A30008069012108434E49886129464D48006834
:104A400000F0B0FA401E00024B4908434B49086091
:104A500070BD70B505464348806B102188434149BD
:104A60008863414800680121490308433E490860C2
:104A7000002404E00020A1003C4A5050641C082C93
:104A8000F8D33B484038406B872188433849403948
:104A900048630846406B0221084335494039486362
:104AA0003348006887218843314908600846006818
:104AB000022108432E49086029462E48006800F06C
:104AC00071FA401E00022C4908432C49086070BD51
:104AD00030B50146082900DB002128480068000A9B
:104AE0000002264C206020460468012088400125F1
:104AF0002D06284304432148046007E088001F4C2A
:104B000000190269D00FC00700D000E0F6E700BF2F
:104B10001A48006807242406A043184C206001208E
:104B20008007024201D0002030BD1004830D1846DA
:104B3000FAE71248006807210906084204D00F4826
:104B4000006888430D4908600C480068FF2108434D
:104B50000A4908600846006801210904084307491A
:104B6000086070470082044080800440F40B00100D
:104B700080400440040800100100200000C00140F3
:104B800070B504460D46002C1AD10220F849486041
:104B90000020C8607D21C900F648006800F002FAD4
:104BA0006843F3498861FF200860042048610120C0
:104BB000486000BFEE484068C007C00FFAD11BE054
:104BC000012C19D10220EC4948600020C8607D21E9
:104BD000C900E848006800F0E5F96843E6498861E3
:104BE000FF200860042048610120486000BFE248BF
:104BF0004068C007C00FFAD170BD10B5DC4800682E
:104C0000C007C00F09D00120D9490860DB480068FF
:104C1000401CDA490860FCF768FED548006810219E
:104C2000084207D01020D2490860D5480068401CCF
:104C3000D349086010BD10B5CF480068C007C00F49
:104C400009D00120CC490860CE480068401CCD49FD
:104C50000860FCF74AFEC84800681021084207D0E7
:104C60001020C5490860C8480068401CC649086053
:104C700010BD002803D10121BD4A516002E001218D
:104C8000BD4A51607047002803D10021B84A5160E5
:104C900002E00021B84A516070470146002906D160
:104CA000B34A506802221043B14A506005E0B24A4C
:104CB000506802221043B04A5060704770B50446F5
:104CC0000D46002C3CD1B148006880210843AF4913
:104CD0000860AF48C069C008C000AD49C861084657
:104CE000C06902210843AA49C861A9484030006A46
:104CF000C008C000A649403108620846006A022187
:104D00000843A349403108620846406AC008C00011
:104D100048620846406A022108439D494031486282
:104D200000209649086096490860914885610520F1
:104D30008F49886203204861102000F012F916E0C4
:104D4000012C14D191480068210208438F49086062
:104D500000208C4908608C490860874885610520DF
:104D60008549886203204861112000F0FAF870BD7F
:104D7000F8B506460D4614461F463046FFF783FF3A
:104D8000012E60D181480068310208437F490860E4
:104D9000AD20C00020437849C863E007C00F0BD0A6
:104DA0007B48806BC008C000794988630846806BE7
:104DB0000121084376498863022004420ED07448DA
:104DC0004030C06AC008C00071494031C86208461E
:104DD000C06A022108436E494031C862082020435E
:104DE0006549403148636B48056000686249486224
:104DF0006848006840088861664800684008C861E3
:104E0000644800684008086208154861002F16D001
:104E10005F484069C008C0005D4948610846406974
:104E2000112108435A4948615B4800688915884345
:104E3000594908600F2050490860072088621120F6
:104E400000F08FF85BE051480068802108434F492B
:104E50000860AB20C00020434549C863E007C00F8D
:104E60000ED04B484030006AC008C000484940316D
:104E700008620846006A0221084345494031086239
:104E8000022004420ED042484030406AC008C000B0
:104E90003F49403148620846406A022108433C4984
:104EA00040314862042004420ED039484030806AC4
:104EB000C008C0003649403188620846806A032134
:104EC0000843334940318862082020432849403153
:104ED0004863324805600068254948622F480068E9
:104EE000400888612D4800684008C8612B48006868
:104EF0004008086208154861102000F032F8F8BD3B
:104F0000002816D0002906D0012907D0022908D090
:104F100003290CD108E0184B9A6109E0164BDA61BD
:104F200006E0154B1A6203E0134B5A6200E000BF23
:104F300016E0002906D0012907D0022908D003294C
:104F40000CD108E00A4B9A6109E0094BDA6106E0EE
:104F5000074B1A6203E0064B5A6200E000BF00BF35
:104F60007047C206D20E012191400D4A1160704770
:104F700000C0004004080010000001407408001048
:104F80007C08001078080010800800108080044021
:104F90000040044088080010008001508408001080
:104FA00000E100E030B50B4601460020202201243C
:104FB00009E00D46D5409D4205D31D469540491B4D
:104FC0002546954040191546521E002DF1DC30BD96
:104FD0000549064A08685043054A80180860400899
:104FE00070470149086070478C0800106D4EC6413B
:104FF0003930000003460B439B0703D009E008C982
:10500000121F08C0042AFAD203E00B78491C03706F
:10501000401C521EF9D27047D2B201E00270401C0F
:10502000491EFBD270470022F6E710B50446084639
:10503000114602462046FFF7EFFF204610BD01460D
:10504000002000E0401C0A5C002AFBD170470246A9
:1050500070B54A40D30FDB0740002DD04A002AD05C
:10506000010E140E091900021202400A520A841895
:10507000E50104465443000A120A2E045043A419C1
:105080004219200CC543AA18120C01257F39521C65
:10509000AD0352191204240400D0521C104301D451
:1050A0004000491EC2B20C06C0092018401C40082E
:1050B000802A02D003E0002070BD40084000002993
:1050C00000DA0020184370BD70B502464A40D50F83
:1050D00040004A00ED0740085208002816D0002A78
:1050E00014D041000C0E51000B0E41020120C005EE
:1050F0005202490A520AE41A091812187D349142E0
:1051000001D3641C00E04900002C01DA002070BDCE
:105110000023914201D3891A034340084900002823
:10512000F7D100290AD0914202D10121C90705E037
:10513000914201D2012101E00121C943E005C018DB
:10514000401900F094F970BDF0B51FB488B00B9908
:1051500009984840C10FC9070091099900204900EA
:10516000490809910B998646490049080B9109990C
:105170000898084303D00B990A98084303D10020EC
:1051800001460DB0F0BD099801244000420D4800D1
:10519000410D099824050003000B204309900B984A
:1051A0000AAE0003000B20430B905018184940181A
:1051B00000220190144610460323032800DA034618
:1051C0009C46C11A0AE05F0008ADED5B4F00F75B3B
:1051D0007D430027AA187C415B1E491C6145F2DD16
:1051E000430004A9CA522104120C0A43240C401C97
:1051F0000828E1DB019B0099704602930191009021
:10520000059B049A0799069800F080F9B9E7000019
:105210000DFCFFFFF0B50C465C4085B0E40FE407E1
:1052200003944C000026640859009446490802463D
:105230000296224321D062460A431ED06200570DD7
:105240004A000E032303550D024601242C49240570
:10525000781B1B0B360B40180090234326436046F7
:105260001C46101AB44103D30098401C009002E081
:10527000921800985B41002803DA0020014605B02F
:10528000F0BD0020012109050746864611E064466D
:105290001D46141BB54106D36546521BB3417446E7
:1052A00007430C43A646CD074008490828439218F7
:1052B0005B4105460D43EAD11046184313D06046C2
:1052C000194650407140084303D100220123DB07F7
:1052D00009E06046101AB34102D20122002302E025
:1052E0000122D2435310009874460105381C6141D5
:1052F000029C039D0019694100F0FBF8BFE7000024
:10530000FD030000C217C10F504010B54018CA0776
:105310009623002100F0B3F810BD00000EB5002266
:10532000044B0293009201921346114600F0EEF8EE
:1053300003B000BD330400004A0009030123090B38
:105340001B051943094B10B5520D9A4201DA002092
:1053500010BD064B34339A4203DC9A1A00F076F8FB
:1053600010BDCD215118884010BD0000FF03000082
:10537000C20FD207400040080ED0C10D0723DB0149
:10538000C918090540021143400A0022C308520708
:105390001A43400711437047002001467047CB0F66
:1053A000DB07490010B5490802460A4307D00A0D39
:1053B00007240903E401090B121B002A01DC002069
:1053C00010BDC900440F0C43C100E018D20580187D
:1053D00000F04DF810BD00000122D207002800DBCC
:1053E000101A002900DB511A88427047F0B51FB42B
:1053F0000646002082B005464024019100901BE043
:10540000019922460F46304600F020F8049A059B89
:10541000801A994110D310461946224600F0DAF955
:10542000361A8F410197224601200021009F00F08B
:10543000D1F938184D4100902046641E0028DFDC69
:10544000019B00982946324607B0F0BD10B5202ACE
:1054500004DB0846203AD040002110BD0B46D34063
:10546000D0402024A21A91400843194610BD0029BB
:1054700004DA401C490001D140084000704770B474
:105480000024050C05D11024000402D1002922D0EB
:105490001124050E01D108340002050F01D1241D8D
:1054A0000001850F01D1A41C8000002801DB641CD1
:1054B0004000002908D020252E1B0D46F540A140B4
:1054C00000D00121294308431B1B0106DB1D000AF4
:1054D000002B02DA002070BC7047DB05181880181A
:1054E0000029F8DA401C4900F5D170BC40084000A2
:1054F000704710B5002B08DA0024401C6141921857
:105500005B411A4301D14008400010BDF0B51FB403
:1055100082B005460C0003D0084600F031FA02E0E4
:1055200000F02EFA2030024600902146284600F076
:1055300051F9049A059B0646039110431943084309
:1055400003D10399304607B0F0BD1046184318D078
:10555000009840210A1A19460498FFF777FF04467D
:105560000D460127009A0599049800F033F9084385
:1055700000D10027F81705433C4303982643054311
:10558000039500990E98F40A401A03990A304D05C4
:105590002C4373050022CD0A002802DA00200146C0
:1055A000D1E70105101969410C9C0D9D0019694155
:1055B000FFF79FFFC7E70000F0B5074608465840D1
:1055C00087B0C00F049048000C46590040084908B5
:1055D000BD1A884105D23846214617461C46024668
:1055E0000B4658004008104303D13846214607B007
:1055F000F0BD200D039040055900400D490D059068
:10560000401A029040286DDA18030121000B0905A9
:105610000843019004980092002805D00199524255
:105620000020884100920190029840210A1A0199B5
:10563000009800F0CFF806460D46684607C800F00F
:10564000D9F8C0196141039A0B0DD71753403B435A
:1056500043D0049A002A2BD0029A012A039A12DC22
:1056600012050024001B914101231B05001C594118
:10567000D20F059BD20702930192009432462B462B
:10568000FFF744FFB3E71405234A0023A2180F468F
:10569000C01AA74101210905001C4F4100187F4194
:1056A000114618187941EA0F1043B6196D4114E0FC
:1056B000EA076D08C3071D437608039B16430022C3
:1056C0001B05801A994101242405001C6141CC0767
:1056D0004008204349088018594132462B46FFF7BD
:1056E00008FF84E7049801224000C117121A002322
:1056F0008B4104982146C517381AA941EFE730B409
:105700000124E407634030BC56E730B40124E407C9
:10571000614030BC50E700000000E0FF70B54B0076
:105720005B0804461C430AD01C0D00263346654224
:10573000B341D417AD1AA34102DB0020014670BD6E
:105740001205001C514170BD4A0009030123090BD9
:105750001B0519430A4B10B5520D9A4202DA00207C
:10576000014610BD064B34339A4203DC9A1AFFF708
:105770006DFE10BD034BD21800F02CF810BD0000D8
:10578000FF030000CDFBFFFF10B5002904DB01245F
:10579000E40740428C412146002B04DB1C460123D8
:1057A000DB075242A341994200D1904210BD000054
:1057B000064C0125064E05E02046E36807C82B434A
:1057C00098471034B442F7D3FAF77EFC006F00001C
:1057D000206F000010B5202A04DB0146203A9140DA
:1057E000002010BD914020239C1A0346E34019433A
:1057F000904010BD10B5202A06DBCB170846203A92
:105800001041C1170B4306E00B461341D040202442
:10581000A21A91400843194610BDFEB500231A464E
:105820001B1A8A4103DB0020014603B0F0BD4A0089
:105830000D0301212D0B0905520D0D43D10702D196
:1058400000186D41521E5110FF31FF310131002708
:1058500004463E4638460097019102460121002049
:105860000905FFF7F3FDC3197141F8183246844664
:105870008E464A4161462846611A904104D36046EB
:10588000241A95411F467646241900986D41401C04
:1058900000903428E1DD00223046F919D2437041EE
:1058A000091B1346A84101D30022134601980105A4
:1058B000381C7141FFF71DFEB7E770B58C180578ED
:1058C000401C6B075B0F01D10378401C2A1106D1E5
:1058D0000278401C03E00678401C0E70491C5B1ED9
:1058E000F9D12B0705D40023521E0DD40B70491C8F
:1058F000FAE70378401CCB1A921C03E01D785B1C6E
:105900000D70491C521EF9D5A142D8D3002070BD9C
:105910000FB410B503A9044B044A029800F08AF9A9
:1059200010BC08BC04B018470D66000090080010B9
:105930000FB41CB50A46521E0192009007A9064BEF
:105940006A46069800F076F9009A002111701CBC96
:1059500008BC04B0184700007F6300007CB5144603
:105960001D46491E01910090044B6A462946204677
:1059700000F060F9009A002111707CBD7F63000087
:105980002021020C01D010211046020A01D0083952
:105990001046020901D0091F1046820801D0891E55
:1059A0001046420801D0881E7047081A704730B46C
:1059B0007446641E2578641CAB4200D21D46635DAC
:1059C0005B00E31830BC18474900CA02104300D0FE
:1059D00004204A0D01D001221043054A490D91428D
:1059E00001D102210843012800D1052070470000A1
:1059F000FF070000F8B504464F1EC80008382118FC
:105A000015461E460868496806223B46934310D057
:105A10002A463346FFF798FB3A46D200083AA318C5
:105A20001A687F1E5B68FFF7C7FD06223B4693435B
:105A3000EED1022F23D0042F11D0062F2FD12A46CA
:105A40003346FFF781FBE36AA26AFFF7B5FD2A46FA
:105A50003346FFF779FB636A226AFFF7ADFD2A46FA
:105A60003346FFF771FBE369A269FFF7A5FD2A46FC
:105A70003346FFF769FB63692269FFF79DFD2A46FC
:105A80003346FFF761FBE368A268FFF795FD2A46FE
:105A90003346FFF759FB63682268FFF78DFDF8BDB9
:105AA000034A10B500201107FFF738FE10BD0000B3
:105AB00001FDFFFF02E008C8121F08C1002AFAD149
:105AC00070477047002001E001C1121F002AFBD17E
:105AD00070470000014908607047000094080010FA
